:0B045300D288C289D2A8D2AFD2B82252
:0604940012040F020453E4
:0D042D00E50F6006E4F50F7F01227F00223D
:0D043A00E50E6006E4F50E7F01227F002232
:0304A500AF0C2277
:0304A800AF0B2275
:03000300020026D2
:10002600C0E0C0F0C083C082C0D075D000C000C0A0
:1000360001C002C003C004C005C006C007E50870C1
:100046000CFFFE12045E7F0112049A8049E50864E3
:100056000170491204728E098F0AE4FFFE12045ED3
:10006600D3E50A94A6E509942E4010E50A948EE598
:100076000994325006750802020155D3E50A948C9C
:10008600E50994264010E50A9474E509942A500679
:10009600750E0102014D750801020155E50864025D
:1000A60060030201551204728E098F0AE4FFFE12E4
:1000B600045ED3E50A9420E5099400402BE50A94F2
:1000C60008E50994045021E50D131313541F241059
:1000D600F8C000E6FFE50D5407FEF874010880023B
:1000E600C333D8FCF45F8033D3E50A9426E509943C
:1000F60006402FE50A940EE509940A5025E50D13EE
:100106001313541F2410F8C000E6FFE50D5407FE34
:10011600F87401088002C333D8FC4FD000F6050DF1
:100126008006750D00750801E50DC3942040207505
:100136000D00E511F4B5100FE513F4B5120985109D
:100146000C85120B750F01E4FF12049A750800D096
:1001560007D006D005D004D003D002D001D000D0FD
:0A016600D0D082D083D0F0D0E03278
:0504A0004D53473A0036
:090469001204941203FB02039B30
:100204001204697BFF7A0479A07D017F0112033413
:1002140012042DEF60FA1204A88F2FEFFB7A0075F9
:1002240018027D017F02120290E52FB41905AF3048
:1002340012048CE52FB40D151204AB8F2EEFFB3393
:1002440095E0FA7518027D067F02120290852F3020
:0202540080BE6A
:1003B6005389F0438901758ACD758CD4C28DD28C50
:0903C600D2A9D2AFC2B9C2B8221B
:10040F005389F0438901E4F58AF58CC28DC28C22A1
:0B045E00AD07AC068C8CAF058F8A2226
:09047200AF8CEFFEAD8AEDFF2214
:06049A00EF24FF928C220A
:1003CF00EF1FAC0670011E4C600B007D027CC7DC7A
:0503DF00FEDDFC80EBD7
:0103E40022F6
:0A037C00C2A58F80D2A77F017E008A
:10038600EF1FAC0670011E4C600A7D027CC7DCFEC6
:04039600DDFC80EC1E
:01039A002240
:0E041F00C2A612037CC2A77F017E00020386E4
:10035A00CFCDCFCECCCE1201AF7C007D0A1201AF39
:04036A00ED2430FF4F
:0E036E00D2A612037CC2A77F017E0002038686
:1003E500AE07BE0104ED148006BE0209ED243F44AC
:0603F50080FF12041F222C
:1003FB007F3812041F7F0C12041F7F0612041F7F0D
:04040B000102041FC7
:080484001203E5AF0302036E51
:060334008B148A158916E6
:10033A001203E5E4F517AB14AA15A91685178275F9
:0F034A008300120170FF600712036E051780E732
:010359002281
:0C0301007F0AEA24FFFDE434FFFC7E00CC
:08030D008E198F1A8C1B8D1C48
:100315007F017E00E4FBEBC3951CE51B6480F8744C
:0E0325008098500AAC19AD1A12019D0B80E8A9
:0103330022A7
:040006008A268B2794
:10000A001203E5AA28EAD39400400D120301AC2694
:08001A00AD2712035A1A80ED14
:0100220022BB
:100256001203E5C3EA64809480400B7F2B12036E81
:100266008A228B23800E7F2D12036EC3E49BF52317
:10027600E49AF522AA21EAD39400400D120301ACB8
:0902860022AD2312035A1A80ED87
:01028F00224C
:040290008A168B1728
:100294001203E5AA18EAD3940040297F101203033D
:1002A400AC16AD17CFCDCFCECCCE1201AFEF540FDD
:1002B400FEC3940AEE5004243080022437FF120354
:0402C4006E1A80D15D
:0102C8002213
:0402C9008A2B8B2CC5
:1002CD001203E5AA2DEAD394004028EA24FFFDE4A9
:1002DD0034FFFC7F027E0012030DAC2BAD2CCFCD75
:1002ED00CFCECCCE1201AFEF54012430FF12036EEE
:0302FD001A80D292
:0103000022DA
:10039B0075985043878053890F438920758BF4756B
:0B03AB008DF4C2ABD28ED2AFD2AC22D8
:08048C008F993099FDC29922FD
:0304AB00AF31224C
:0300230002047B59
:09047B00309805859931C29832D0
:03000000020447B0
:0C044700787FE4F6D8FD758131020204D4
:10017000BB010CE58229F582E5833AF583E0225044
:1001800006E92582F8E622BBFE06E92582F8E2228E
:0D019000E58229F582E5833AF583E49322A8
:10019D00EF8DF0A4A8F0CF8CF0A428CE8DF0A42E76
:0201AD00FE2230
:1001AF00BC000BBE0029EF8DF084FFADF022E4CC34
:1001BF00F875F008EF2FFFEE33FEEC33FCEE9DECFD
:1001CF00984005FCEE9DFE0FD5F0E9E4CEFD22ED43
:1001DF00F8F5F0EE8420D21CFEADF075F008EF2F8D
:1001EF00FFED33FD4007985006D5F0F222C398FD7E
:0501FF000FD5F0EA221B
:00000001FF
